{
  "contractName": "Voting",
  "abi": [
    {
      "inputs": [],
      "stateMutability": "nonpayable",
      "type": "constructor"
    },
    {
      "anonymous": false,
      "inputs": [
        {
          "indexed": true,
          "internalType": "uint256",
          "name": "actionId",
          "type": "uint256"
        },
        {
          "indexed": false,
          "internalType": "string",
          "name": "action",
          "type": "string"
        }
      ],
      "name": "AuditLog",
      "type": "event"
    },
    {
      "anonymous": false,
      "inputs": [
        {
          "indexed": true,
          "internalType": "uint256",
          "name": "candidateId",
          "type": "uint256"
        },
        {
          "indexed": false,
          "internalType": "string",
          "name": "name",
          "type": "string"
        }
      ],
      "name": "CandidateRegistered",
      "type": "event"
    },
    {
      "anonymous": false,
      "inputs": [
        {
          "indexed": true,
          "internalType": "uint256",
          "name": "candidateId",
          "type": "uint256"
        }
      ],
      "name": "Voted",
      "type": "event"
    },
    {
      "inputs": [],
      "name": "admin",
      "outputs": [
        {
          "internalType": "address",
          "name": "",
          "type": "address"
        }
      ],
      "stateMutability": "view",
      "type": "function"
    },
    {
      "inputs": [
        {
          "internalType": "uint256",
          "name": "",
          "type": "uint256"
        }
      ],
      "name": "auditLog",
      "outputs": [
        {
          "internalType": "string",
          "name": "",
          "type": "string"
        }
      ],
      "stateMutability": "view",
      "type": "function"
    },
    {
      "inputs": [],
      "name": "auditLogCount",
      "outputs": [
        {
          "internalType": "uint256",
          "name": "",
          "type": "uint256"
        }
      ],
      "stateMutability": "view",
      "type": "function"
    },
    {
      "inputs": [
        {
          "internalType": "uint256",
          "name": "",
          "type": "uint256"
        }
      ],
      "name": "candidates",
      "outputs": [
        {
          "internalType": "uint256",
          "name": "id",
          "type": "uint256"
        },
        {
          "internalType": "string",
          "name": "name",
          "type": "string"
        },
        {
          "internalType": "uint256",
          "name": "voteCount",
          "type": "uint256"
        }
      ],
      "stateMutability": "view",
      "type": "function"
    },
    {
      "inputs": [],
      "name": "candidatesCount",
      "outputs": [
        {
          "internalType": "uint256",
          "name": "",
          "type": "uint256"
        }
      ],
      "stateMutability": "view",
      "type": "function"
    },
    {
      "inputs": [
        {
          "internalType": "address",
          "name": "",
          "type": "address"
        }
      ],
      "name": "hasVoted",
      "outputs": [
        {
          "internalType": "bool",
          "name": "",
          "type": "bool"
        }
      ],
      "stateMutability": "view",
      "type": "function"
    },
    {
      "inputs": [
        {
          "internalType": "string",
          "name": "_name",
          "type": "string"
        }
      ],
      "name": "addCandidate",
      "outputs": [],
      "stateMutability": "nonpayable",
      "type": "function"
    },
    {
      "inputs": [
        {
          "internalType": "uint256",
          "name": "_candidateId",
          "type": "uint256"
        }
      ],
      "name": "vote",
      "outputs": [],
      "stateMutability": "nonpayable",
      "type": "function"
    },
    {
      "inputs": [],
      "name": "getWinner",
      "outputs": [
        {
          "internalType": "string",
          "name": "",
          "type": "string"
        }
      ],
      "stateMutability": "view",
      "type": "function"
    },
    {
      "inputs": [
        {
          "internalType": "uint256",
          "name": "_actionId",
          "type": "uint256"
        }
      ],
      "name": "getAuditLog",
      "outputs": [
        {
          "internalType": "string",
          "name": "",
          "type": "string"
        }
      ],
      "stateMutability": "view",
      "type": "function"
    }
  ],
  "bytecode": "0x608060405234801561000f575f80fd5b50600380546001600160a01b031916331790556109f98061002f5f395ff3fe608060405234801561000f575f80fd5b506004361061009b575f3560e01c80638e7ea5b2116100635780638e7ea5b214610137578063ac457e511461014c578063e887319a14610155578063f22ac6f114610168578063f851a4401461017b575f80fd5b80630121b93f1461009f57806309eef43e146100b45780632d35a8a2146100eb5780633477ee2e14610102578063462e91ec14610124575b5f80fd5b6100b26100ad3660046106dd565b6101a6565b005b6100d66100c23660046106f4565b60016020525f908152604090205460ff1681565b60405190151581526020015b60405180910390f35b6100f460025481565b6040519081526020016100e2565b6101156101103660046106dd565b6102be565b6040516100e293929190610764565b6100b26101323660046107a0565b610366565b61013f610468565b6040516100e2919061084b565b6100f460055481565b61013f6101633660046106dd565b610558565b61013f6101763660046106dd565b610646565b60035461018e906001600160a01b031681565b6040516001600160a01b0390911681526020016100e2565b5f811180156101b757506002548111155b6101ff5760405162461bcd60e51b8152602060048201526014602482015273125b9d985b1a590818d85b991a59185d1948125160621b60448201526064015b60405180910390fd5b335f9081526001602052604090205460ff16156102575760405162461bcd60e51b8152602060048201526016602482015275165bdd481a185d9948185b1c9958591e481d9bdd195960521b60448201526064016101f6565b5f8181526020819052604081206002018054916102738361085d565b9091555050335f908152600160208190526040808320805460ff19169092179091555182917f7f511e347bf51eed3be100b3194247d5207f05f3b33de7d31e3e8ee73199a04991a250565b5f60208190529081526040902080546001820180549192916102df90610881565b80601f016020809104026020016040519081016040528092919081815260200182805461030b90610881565b80156103565780601f1061032d57610100808354040283529160200191610356565b820191905f5260205f20905b81548152906001019060200180831161033957829003601f168201915b5050505050908060020154905083565b6003546001600160a01b031633146103cb5760405162461bcd60e51b815260206004820152602260248201527f4f6e6c792061646d696e2063616e20706572666f726d2074686973206163746960448201526137b760f11b60648201526084016101f6565b60028054905f6103da8361085d565b90915550506040805160608101825260025480825260208083018581525f8486018190529283529082905292902081518155915190919060018201906104209082610907565b506040918201516002918201555490517f96b6e1d9af8279de0ae4d01600bcae708bdb292c4a8f8f150aff92f5caf56a429061045d90849061084b565b60405180910390a250565b60605f8060015b60025481116104b9575f818152602081905260409020600201548310156104a7575f8181526020819052604090206002015492509050805b806104b18161085d565b91505061046f565b505f81815260208190526040902060010180546104d590610881565b80601f016020809104026020016040519081016040528092919081815260200182805461050190610881565b801561054c5780601f106105235761010080835404028352916020019161054c565b820191905f5260205f20905b81548152906001019060200180831161052f57829003601f168201915b50505050509250505090565b60605f8211801561056b57506005548211155b6105ab5760405162461bcd60e51b8152602060048201526011602482015270125b9d985b1a59081858dd1a5bdb881251607a1b60448201526064016101f6565b5f82815260046020526040902080546105c390610881565b80601f01602080910402602001604051908101604052809291908181526020018280546105ef90610881565b801561063a5780601f106106115761010080835404028352916020019161063a565b820191905f5260205f20905b81548152906001019060200180831161061d57829003601f168201915b50505050509050919050565b60046020525f90815260409020805461065e90610881565b80601f016020809104026020016040519081016040528092919081815260200182805461068a90610881565b80156106d55780601f106106ac576101008083540402835291602001916106d5565b820191905f5260205f20905b8154815290600101906020018083116106b857829003601f168201915b505050505081565b5f602082840312156106ed575f80fd5b5035919050565b5f60208284031215610704575f80fd5b81356001600160a01b038116811461071a575f80fd5b9392505050565b5f81518084525f5b8181101561074557602081850181015186830182015201610729565b505f602082860101526020601f19601f83011685010191505092915050565b838152606060208201525f61077c6060830185610721565b9050826040830152949350505050565b634e487b7160e01b5f52604160045260245ffd5b5f602082840312156107b0575f80fd5b813567ffffffffffffffff808211156107c7575f80fd5b818401915084601f8301126107da575f80fd5b8135818111156107ec576107ec61078c565b604051601f8201601f19908116603f011681019083821181831017156108145761081461078c565b8160405282815287602084870101111561082c575f80fd5b826020860160208301375f928101602001929092525095945050505050565b602081525f61071a6020830184610721565b5f6001820161087a57634e487b7160e01b5f52601160045260245ffd5b5060010190565b600181811c9082168061089557607f821691505b6020821081036108b357634e487b7160e01b5f52602260045260245ffd5b50919050565b601f821115610902575f81815260208120601f850160051c810160208610156108df5750805b601f850160051c820191505b818110156108fe578281556001016108eb565b5050505b505050565b815167ffffffffffffffff8111156109215761092161078c565b6109358161092f8454610881565b846108b9565b602080601f831160018114610968575f84156109515750858301515b5f19600386901b1c1916600185901b1785556108fe565b5f85815260208120601f198616915b8281101561099657888601518255948401946001909101908401610977565b50858210156109b357878501515f19600388901b60f8161c191681555b5050505050600190811b0190555056fea26469706673582212200d7498d19f55ff244cfa66dda9fab4dd6089bf94631b796806eb47797187a80764736f6c63430008150033",
  "immutableReferences": {},
  "source": "// SPDX-License-Identifier: MIT\npragma solidity ^0.8.0;\n\ncontract Voting {\n    // Estrutura para representar um candidato\n    struct Candidate {\n        uint256 id;\n        string name;\n        uint256 voteCount;\n    }\n\n    // Mapeamento para armazenar os candidatos registrados\n    mapping(uint256 => Candidate) public candidates;\n\n    // Mapeamento para armazenar se uma carteira j votou\n    mapping(address => bool) public hasVoted;\n\n    // Varivel para armazenar o nmero total de candidatos\n    uint256 public candidatesCount;\n\n    // Endereo do administrador do contrato\n    address public admin;\n\n    // Evento para registrar o voto de um eleitor\n    event Voted(uint256 indexed candidateId);\n\n    // Evento para registrar o registro de um novo candidato\n    event CandidateRegistered(uint256 indexed candidateId, string name);\n\n    // Evento para registrar o log de auditoria\n    event AuditLog(uint256 indexed actionId, string action);\n\n    // Varivel para armazenar o registro de auditoria\n    mapping(uint256 => string) public auditLog;\n    uint256 public auditLogCount;\n\n    // Modificador para verificar se o endereo do remetente  o administrador\n    modifier onlyAdmin() {\n        require(msg.sender == admin, \"Only admin can perform this action\");\n        _;\n    }\n\n    // Construtor que define o administrador do contrato\n    constructor() {\n        admin = msg.sender;\n    }\n\n    // Funo para registrar um novo candidato\n    function addCandidate(string memory _name) public onlyAdmin {\n        candidatesCount++;\n        candidates[candidatesCount] = Candidate(candidatesCount, _name, 0);\n        emit CandidateRegistered(candidatesCount, _name);\n    }\n\n    // Funo para os eleitores votarem em um candidato\n    function vote(uint256 _candidateId) public {\n        require(_candidateId > 0 && _candidateId <= candidatesCount, \"Invalid candidate ID\");\n        require(!hasVoted[msg.sender], \"You have already voted\");\n\n        candidates[_candidateId].voteCount++;\n        hasVoted[msg.sender] = true;\n\n        emit Voted(_candidateId);\n    }\n\n    // Funo para contar os votos e declarar o vencedor\n    function getWinner() public view returns (string memory) {\n        uint256 winningVoteCount = 0;\n        uint256 winningCandidateId;\n\n        for (uint256 i = 1; i <= candidatesCount; i++) {\n            if (candidates[i].voteCount > winningVoteCount) {\n                winningVoteCount = candidates[i].voteCount;\n                winningCandidateId = i;\n            }\n        }\n\n        return candidates[winningCandidateId].name;\n    }\n\n\n    // Funo para permitir a auditabilidade do contrato\n    // Ou seja, funo para retornar o log de auditoria com base no ID da ao\nfunction getAuditLog(uint256 _actionId) public view returns (string memory) {\n    require(_actionId > 0 && _actionId <= auditLogCount, \"Invalid action ID\");\n    return auditLog[_actionId];\n}\n\n}\n\n",
  "sourcePath": "/Users/henriquefreitas/Documents/MyProjects/contrato-inteligente/contracts/Voting.sol",
  "compiler": {
    "name": "solc",
    "version": "0.8.21+commit.d9974bed.Emscripten.clang"
  },
  "schemaVersion": "3.4.16",
  "updatedAt": "2024-05-03T01:52:57.601Z",
  "devdoc": {
    "kind": "dev",
    "methods": {},
    "version": 1
  },
  "userdoc": {
    "kind": "user",
    "methods": {},
    "version": 1
  }
}